:020000040800F2
:10000000E00600200101000831260008D322000884
:100010002D2600086D0100084D3100080000000089
:10002000000000000000000000000000B1270008F0
:100030005D030008000000000527000821280008D3
:100040001B010008FD2600081B0100081B01000819
:10005000A30300086D2700081B0100081B0100080E
:100060001B0100081B0100081B0100081B01000800
:100070001D0200082D0200081B0100081B010008DA
:100080001B0100081B0100081B0100081B010008E0
:100090001B0100081B0100081B0100081B010008D0
:1000A0001B0100081B0100081B0100081B010008C0
:1000B000E9280008F9280008092900081B010008A0
:1000C0001B0100081B0100081B0100081B010008A0
:1000D0001B0100081B0100081B0100083D3100083E
:1000E0001B0100081B0100081B010008DFF80CD0F1
:1000F00000F02AF800480047A9310008E006002077
:100100000648804706480047FEE7FEE7FEE7FEE7B1
:10011000FEE7FEE7FEE7FEE7FEE7FEE791280008C0
:10012000ED000008D2B201E000F8012B491EFBD21D
:1001300070470022F6E710B513460A4604461946F2
:10014000FFF7F0FF204610BD064C074D06E0E068C3
:1001500040F0010394E8070098471034AC42F6D30E
:10016000FFF7C8FFA4320008C432000800BFFEE752
:100170000B4800780B49097888420DDD0848401C7F
:1001800008490978405C40B2074908700548007882
:10019000401C0449087002E00020024908707047C2
:1001A00094020020C4000020040000202DE9F0414A
:1001B0000346002B30DB42F20F7083422CDC4FF4FD
:1001C0007A70B3FBF0F03030C5B24FF47A70B3FB05
:1001D000F0F800FB18346420B4FBF0F03030C6B205
:1001E0006420B4FBF0F800FB18440A20B4FBF0F0E4
:1001F0003030C7B20A20B4FBF0F800FB184000F121
:10020000300C8D54501C0E54901C0F54D01C01F80F
:1002100000C00120BDE8F0810020FBE710B50248D6
:1002200000F082F910BD00002802002010B502483D
:1002300000F07AF910BD0000E401002030B590F81C
:1002400040500124AC40C56B6C6004686360446836
:10025000102C04D10468A2600468E16003E0046823
:10026000A1600468E26030BD3CB5294800780128EF
:100270004DD1002108E02748405C0DF80100002026
:10028000244C6054481CC1B20529F4DB9DF80030B1
:100290000122412B06D0422B24D0432B26D0442BC5
:1002A00030D127E01DF8020030384FF47A746043F3
:1002B000541C1DF80440303C04EBC40505EB041449
:1002C00000EB8404901C1DF80000303800EB800027
:1002D00004EB4004D01C1DF80000303820440E4CC4
:1002E000208010E000200C4C20800CE001200B4C02
:1002F000207008E00020094C2070094C2070064C4A
:10030000208000E000BF00BF0020014C20703CBDF9
:1003100003000020BA00002096000020BF0000204B
:100320009400002010B55220084908700A20487136
:10033000012207480088FFF739FF012005490870AE
:1003400006220249044801F06FFF10BDB4000020EE
:100350009800002002000020A40100207047000047
:100360000A4880680A49086008460068094909681F
:10037000884206D10020054988600749088007495E
:100380000860034800680349086070476C02002059
:10039000C8000020CC000020980000209C00002015
:1003A000704710B500F012FA10BD00000021074A96
:1003B000D1610749096941F00201054A11611146FD
:1003C0004861096941F0400111617047C002002095
:1003D000002002400022054BDA61054A126942F012
:1003E0000102034B1A61018070470000C002002027
:1003F0000020024000201E49C96801F0100139B1F7
:100400001C49C96941F002011A4AD16140F010004B
:100410001749C96801F0040139B11649C96941F0A9
:100420000101144AD16140F004001149C96901F089
:10043000010169B10F49C96941F004010D4AD16157
:1004400000BF0B49C96921F00101094AD16100BF10
:1004500000BF40F20111884206D10549C96921F067
:100460000101034AD16101E00149C86000BF704742
:1004700000200240C002002070B50446002594F818
:100480002100022803D00420A063012548E0206851
:10049000006820F00E00216808602068006820F0E5
:1004A0000100216808601F492068884201D10120AD
:1004B00026E01C4914312068884201D110201FE039
:1004C000184928312068884201D1801518E0154963
:1004D0003C312068884201D1801411E0114950312B
:1004E0002068884202D14FF4803009E00D49643120
:1004F0002068884202D14FF4801001E04FF08070F4
:10050000084908394860012084F8210000BF002014
:1005100084F8200000BF606B10B12046616B8847F3
:10052000284670BD0800024070B50446E06B0568BF
:100530002068066894F8401004208840284000286D
:1005400046D006F00400002842D02068006800F081
:10055000200028B92068006820F0040021680860A5
:1005600057492068884201D1042027E054491431BA
:100570002068884201D1402020E05149283120687C
:10058000884201D1001519E04D493C31206888426C
:1005900002D14FF4804011E049495031206888422F
:1005A00002D14FF4802009E0454964312068884237
:1005B00002D14FF4800001E04FF0806040490839DB
:1005C0004860E06A00287AD02046E16A884776E0F1
:1005D00094F84010022088402840A0B306F00200A2
:1005E00088B32068006800F0200040B920680068E7
:1005F00020F00A0021680860012084F821003049B9
:100600002068884201D1022028E02D491431206859
:10061000884201D1202021E02949283120688842E0
:1006200001D140151AE026493C312068884202D1A8
:100630004FF4005012E0224950312068884203D123
:100640004FF400300AE017E01D4964312068884209
:1006500002D14FF4001001E04FF000701849083942
:10066000486000BF002084F8200000BFA06A30B3BB
:100670002046A16A884722E094F84010082088406C
:100680002840E0B106F00800C8B12068006820F0FA
:100690000E002168086094F8401001208840E16B4A
:1006A00048600120A06384F8210000BF002084F886
:1006B000200000BF206B10B12046216B884770BD21
:1006C000080002400146002209B901207047164B7C
:1006D0000868C01A1423B0FBF3F0800008641248C5
:1006E0000838C863022081F821000868026843F6D0
:1006F000F0708243D1E901031843CB6818430B69BA
:1007000018434B6918438B691843CB69184302435C
:100710000868026000208863012081F82100002021
:1007200081F8200000BFD1E7080002402DE9F04128
:1007300004460D4616461F464FF0000800BF94F8C9
:100740002000012802D10220BDE8F081012084F8B8
:10075000200000BF94F8210001282CD1022084F849
:1007600021000020A0632068006820F001002168BB
:1007700008603B46324629462046FFF75FFDE06AA7
:1007800030B12068006840F00E00216808600BE07E
:100790002068006820F00400216808602068006874
:1007A00040F00A00216808602068006840F00100FD
:1007B0002168086006E000BF002084F8200000BF28
:1007C0004FF002084046BFE77047000010B5002414
:1007D0005C48C06800F0100020B95A48C06800F0BA
:1007E000040068B1584884684FF0FF30564988606B
:1007F000FFF700FE204600F0A9F8002052490870DB
:100800005048C06800F02000002828D000BF2020F9
:100810004C49C86000BF4C48007800287ED04A4848
:100820000078012827D148484068401E4649486062
:1008300008464068A0B1084684682046FFF7C4FF18
:100840004148806800F580643F4884603D48006905
:1008500020F002003B4908612046FFF7A7FD5DE05C
:100860004FF0FF3004463849886000200870204669
:10087000FFF7AAFF52E03448007802280CD1314833
:10088000006920F004002F4908610020FFF79CFF59
:1008900000202D49087041E02B484068401E2A493D
:1008A000486008464068D8B108468068801C886067
:1008B0000846846808694969000C40EA0140090C4F
:1008C000214A106151611F48006920F001001D4953
:1008D00008611069526981B22046FFF77BFD1DE077
:1008E00019480078032804D117498868FFF76CFF7E
:1008F0000EE015480078042805D113498968881E40
:10090000FFF762FF04E010498968881FFFF75CFF6A
:100910004FF0FF300C498860002008700A480078CA
:1009200078B90848006920F00700064908610846C0
:10093000006920F4A050086100BF00200249087639
:1009400000BF10BD00200240C00200207047000020
:100950002DE9F8470346002294466EE14FF0010866
:1009600008FA02F4D1F8008008EA0400A0427DD120
:10097000DFF8DCA2D1F80480A8EB0A09D0453AD010
:1009800014DCB8F1030F50D009DCB8F1000F31D0FE
:10099000B8F1010F1CD0B8F1020F49D120E0B8F135
:1009A000110F18D0B8F1120F42D11EE0B9F5881F0F
:1009B00025D006DCB9F5803F20D0B9F5801F37D1AE
:1009C0001AE0B9F5001F18D0B9F5041F30D117E0AF
:1009D000D1F80CC02DE0D1F80C8008F1040C28E00F
:1009E000D1F80C8008F1080C23E0D1F80C8008F154
:1009F0000C0C1EE000BF00BF00BF00BF00BF00BF67
:100A0000D1F80880B8F1000F02D14FF0040C0BE0D0
:100A1000D1F80880B8F1010F03D14FF0080C1C6128
:100A200002E04FF0080C5C6103E04FF0000C00E0C6
:100A300000BF00BFFF2801D8984601E003F1040879
:100A40004646FF2802D84FEA820803E0A2F10808D0
:100A50004FEA88084746D6F800804FF00F0909FA98
:100A600007F928EA09080CFA07F900E088E048EAE3
:100A70000908C6F80080D1F8048008F08058B8F161
:100A8000805F7DD100BFDFF8CC81D8F8188048F0B6
:100A90000108DFF8C091C9F81880C846D8F8188056
:100AA00008F00108CDF8008000BF00BF4FEAB93858
:100AB0004FEA920958F829504FEA82784FEA18799C
:100AC0004FF00F0808FA09F825EA0805DFF88881D1
:100AD000434502D14FF0000816E0DFF8808143451E
:100AE00002D14FF001080FE0DFF87481434502D1D5
:100AF0004FF0020808E0DFF86C81434502D14FF067
:100B0000030801E04FF004084FEA82794FEA1979AF
:100B100008FA09F848EA0505DFF84C814FEA92091E
:100B200048F82950D1F8048008F48038B8F5803F9F
:100B30000AD1DFF83881D8F8008048EA0008DFF8E9
:100B40002C91C9F8008009E0DFF82081D8F80080F6
:100B500028EA0008DFF81491C9F80080D1F8048071
:100B600008F40038B8F5003F10D1DFF8008108F133
:100B70000408D8F8008048EA0008DFF8F09000E0A8
:100B80005AE009F10409C9F800800DE0DFF8DC80C3
:100B900008F10408D8F8008028EA0008DFF8CC90B3
:100BA00009F10409C9F80080D1F8048008F480181C
:100BB000B8F5801F0ED1DFF8B48008F10808D8F826
:100BC000008048EA0008DFF8A49009F10809C9F894
:100BD00000800DE0DFF8948008F10808D8F8008064
:100BE00028EA0008DFF8849009F10809C9F80080B4
:100BF000D1F8048008F40018B8F5001F0ED1DFF812
:100C00006C8008F10C08D8F8008048EA0008DFF88A
:100C10005C9009F10C09C9F800800DE0DFF84C8008
:100C200008F10C08D8F8008028EA0008DFF83C90AA
:100C300009F10C09C9F80080521CD1F8008028FA8B
:100C400002F8B8F1000F7FF489AEBDE8F887000024
:100C5000000011100010024000080140000C01408B
:100C60000010014000140140080001400004014050
:100C7000C2680A400AB1416100E0016170470AB1EF
:100C8000016101E00B040361704700000148006846
:100C900070470000D4000020034800680349097829
:100CA0000844014908607047D4000020DC0000209F
:100CB00010B50848006840F010000649086003209D
:100CC00000F0C0F8002000F007F800F02BF800203A
:100CD00010BD00000020024070B504460E480078A8
:100CE0004FF47A71B1FBF0F00C490968B1FBF0F5F3
:100CF000284600F035FC08B1012070BD102C07D249
:100D000000222146501E00F05FF80548046001E013
:100D10000120F2E70020F0E7DC000020E0000020E6
:100D2000D800002008B500BF1D48806940F00100D0
:100D30001B4988610846806900F00100009000BFEF
:100D400000BF00BF0846C06940F08050C861084637
:100D5000C06900F08050009000BF00BF0022114623
:100D6000012000F031F8012000F01EF800221146A9
:100D7000042000F029F8042000F016F800221146A3
:100D8000052000F021F8052000F00EF800BF05490D
:100D9000486820F0E06040F00070486000BF08BD87
:100DA000001002400000014001460846002809DB0F
:100DB00000F01F0301229A4043099B0003F1E02346
:100DC000C3F8002100BF70472DE9F05F80460D4653
:100DD0001646002702F0BCF9074639462A46334634
:100DE00001F00700C0F1070ABAF1040F02D94FF071
:100DF000040A01E0C0F1070AD14600F1040ABAF181
:100E0000070F02D24FF0000A01E0A0F1030AD44616
:100E10004FF0010A0AFA09FAAAF1010A0AEA020ADB
:100E20000AFA0CFA4FF0010B0BFA0CFBABF1010BB9
:100E30000BEA030B4AEA0B042146404602F090F904
:100E4000BDE8F09F00BF00F00702064B19684FF69F
:100E5000FF031940044B0B4343EA0221014B196085
:100E600000BF70470CED00E00000FA05704700007D
:100E700010B50648006800F4803028B1FFF7F6FF8F
:100E80004FF480300149086010BD00001404014097
:100E900070B504460D460CB9012070BD5A48006873
:100EA00000F00700A8420ED25748006820F0070063
:100EB0002843554908600846006800F00700A8422A
:100EC00001D00120E9E7207800F0020002281DD1BE
:100ED000207800F00400042805D14C48406840F414
:100EE000E0604A494860207800F00800082805D1F1
:100EF0004648406840F46050444948604348406870
:100F000020F0F000A168084340494860207800F0D4
:100F1000010078B36068012806D13C48006800F4FD
:100F2000003090B90120B8E76068022806D1374840
:100F3000006800F0007040B90120AEE73348006857
:100F400000F0020008B90120A7E73048406820F00F
:100F50000300616808432D494860FFF797FE064685
:100F600009E0FFF793FE801B41F28831884202D9E5
:100F7000032092E707E02548406800F00C00616814
:100F8000B0EB810FEDD12048006800F00700A842C7
:100F90000ED91D48006820F0070028431A49086050
:100FA0000846006800F00700A84201D0012074E75D
:100FB000207800F00400042807D11448406820F489
:100FC000E060E168084311494860207800F00800BB
:100FD000082808D10D48406820F46050216940EA93
:100FE000C1000A49486000F03FF808494968C1F368
:100FF0000311074A515CC84006490860064800686A
:10100000FFF76AFE002048E700200240001002407F
:101010008C320008E0000020D80000200148006861
:1010200070470000E000002000B5FFF7F7FF04491B
:101030004968C1F30221034A515CC84000BD000069
:10104000001002409C32000800B5FFF7E7FF04499A
:101050004968C1F3C221034A515CC84000BD000089
:10106000001002409C320008F0B585B00FF26C0C05
:101070009CE8E01001A8A0E8E0101CA52D680095F0
:1010800000210022002300240020194D696801F08E
:101090000C05F5B1042D02D0082D19D101E0154839
:1010A00019E001ADC1F38346AC5D01F4803555B163
:1010B0000F4D6D68C5F340451DF805200D4D654386
:1010C000B5FBF2F302E00C4D04FB05F3184602E019
:1010D00000BF084800BF00BF05B0F0BD0203040513
:1010E000060708090A0B0C0D0E0F10100102000074
:1010F0000010024000127A0000093D00F8B50446D5
:101100000CB90120F8BD207800F00100002878D04B
:10111000F848406800F00C0004280CD0F5484068FE
:1011200000F00C00082811D1F248406800F480302B
:10113000B0F5803F0AD1EF48006800F40030002885
:101140005FD0606800285CD10120DBE700BF6068E9
:10115000B0F5803F06D1E748006840F48030E549AB
:10116000086028E0606858B9E248006820F48030E0
:10117000E04908600846006820F4802008601AE012
:101180006068B0F5A02F0BD1DA48006840F48020E9
:10119000D84908600846006840F4803008600AE0DA
:1011A000D448006820F48030D249086008460068BE
:1011B00020F48020086000BF606888B1FFF766FDFA
:1011C000054606E0FFF762FD401B642801D90320B5
:1011D00098E7C848006800F400300028F2D010E01A
:1011E000FFF754FD054606E0FFF750FD401B64285D
:1011F00001D9032086E7BF48006800F400300028CA
:10120000F2D1207800F00200022857D1B948406896
:1012100000F00C0050B1B748406800F00C000828FE
:1012200018D1B448406800F4803098B9B1480068DB
:1012300000F0020020B12069012801D0012061E7FF
:10124000AC48006820F0F800616940EAC100A94993
:10125000086033E02069E8B10120A7490860FFF782
:1012600015FD054606E0FFF711FD401B022801D9D8
:10127000032047E79F48006800F002000028F2D0F2
:101280009C48006820F0F800616940EAC100994973
:10129000086013E0002098490860FFF7F7FC054656
:1012A00006E0FFF7F3FC401B022801D9032029E7E1
:1012B0009048006800F002000028F2D1207800F089
:1012C000080008282DD1A069B8B101208B49086019
:1012D000FFF7DCFC054606E0FFF7D8FC401B0228C0
:1012E00001D903200EE78348406A00F0020000287D
:1012F000F2D0012001F026FA13E000207F490860B7
:10130000FFF7C4FC054606E0FFF7C0FC401B0228BF
:1013100001D90320F6E67748406A00F00200002871
:10132000F2D1207800F00400042873D1002771481E
:10133000C06900F0805070B900BF6E48C06940F0CD
:1013400080506C49C8610846C06900F08050009028
:1013500000BF00BF01276A48006800F48070B0B980
:101360006748006840F4807065490860FFF78EFCAC
:10137000054606E0FFF78AFC401B642801D90320DC
:10138000C0E65F48006800F480700028F2D000BF1B
:10139000E068012806D15748006A40F0010055492D
:1013A000086227E0E06858B95248006A20F001005E
:1013B000504908620846006A20F00400086219E0FB
:1013C000E06805280BD14B48006A40F00400494909
:1013D00008620846006A40F0010008620AE04548D9
:1013E000006A20F00100434908620846006A20F0C4
:1013F0000400086200BFE068A0B1FFF747FC0546A3
:1014000009E0FFF743FC401B41F28831884202D9D2
:10141000032077E622E03748006A00F00200002847
:10142000EFD012E0FFF732FC054608E0FFF72EFC94
:10143000401B41F28831884201D9032062E62D48E1
:10144000006A00F002000028F0D1012F05D12948E0
:10145000C06920F080502749C86100BFE069C8B367
:101460002448406800F00C00082860D0E069022899
:1014700048D1002020490866FFF708FC054606E031
:10148000FFF704FC401B022801D903203AE6194863
:10149000006800F000700028F2D1206AB0F5803FAB
:1014A00007D11448406820F40030A168084311496E
:1014B0004860D4E9080108430E49496821F47411D1
:1014C00008430C49486001200B490866FFF7DEFB22
:1014D000054607E03DE0FFF7D9FB401B022801D994
:1014E00003200FE60348006800F000700028F2D0E7
:1014F0002FE00000001002400000424280044242FF
:1015000000700040002014490866FFF7BFFB054645
:1015100006E0FFF7BBFB401B022801D90320F1E5E1
:101520000E48006800F000700028F2D111E0E06978
:10153000012800D1E6E50948466806F48031206AB2
:10154000814204D106F47011606A814201D0012009
:10155000D8E50020D6E5000000004242001002401D
:1015600070B504462546681EB0F1807F01D3012086
:101570000FE0681E4FF0E02148610F214FF0FF306F
:1015800001F0EEFD00204FF0E021886107200861A6
:10159000002070BD7047704710B5024600BF92F83A
:1015A0003C00012801D1022010BD012082F83C003E
:1015B00000BF022082F83D0010684368106884680C
:1015C00023F070030868034324F080044868044350
:1015D0001068436010688460012082F83D0000BFFD
:1015E000002082F83C0000BF00BFDDE710B50446D4
:1015F0000CB9012010BD94F83D0028B9002084F8F2
:101600003C00204600F00CF8022084F83D00211D2B
:10161000206801F081F9012084F83D000020E9E70D
:1016200010B586B004460020029003900490059007
:101630002068B0F1804F38D100BF2A48C06940F01F
:1016400001002849C8610846C06900F00100019006
:1016500000BF00BF00BF0846806940F004008861F9
:101660000846806900F00400019000BF00BF4FF4FD
:101670000040029000200390049002A91A48FFF74E
:1016800067F900BF1949486820F4407040F0E060F5
:1016900040F48070486000BF002211461C20FFF714
:1016A00093FB1C20FFF780FB19E01149206888425A
:1016B00015D100BF0B48C06940F002000949C8615C
:1016C0000846C06900F00200019000BF00BF002280
:1016D00011461D20FFF778FB1D20FFF765FB06B0C4
:1016E00010BD000000100240000801400000014051
:1016F0000004004001460868C06840F001000B6823
:10170000D8600868806800F00702062A05D00868DB
:10171000006840F001000B681860002070472DE958
:10172000F04104460D4600BF94F83C00012802D168
:101730000220BDE8F081012084F83C0000BF0220B7
:1017400084F83D002068866826F0770626F47F46F8
:10175000206886602868502833D00CDC202850D0C0
:1017600004DC00284BD0102851D149E0302849D062
:1017700040284CD139E060282DD0702807D0B0F532
:10178000805F03D0B0F5005F41D10DE040E0D5E9C6
:1017900002136A68206801F00AF92068866846F03A
:1017A00077062068866033E0D5E902136A6820680E
:1017B00001F0FDF82068806840F48040216888606E
:1017C00026E0EA686968206801F0C2F950212068C3
:1017D00001F0F8F81CE0EA686968206801F000FA96
:1017E0006021206801F0EEF812E0EA68696820687C
:1017F00001F0AEF94021206801F0E4F808E000BFF4
:1018000000BF00BF2968206801F0DCF800E000BFDD
:1018100000BF012084F83D0000BF002084F83C0098
:1018200000BF00BF85E710B504462068B0F1804FC7
:1018300004D1207F012801D100F09AFF10BD2DE9CD
:10184000F04104460D46164600BF94F83C000128BE
:1018500002D10220BDE8F081012084F83C0000BFE5
:10186000022084F83D0096B9EB68D5E900122068A3
:1018700001F082F92068806920F00C0021688861FD
:1018800020688069A9680843216888613DE0042ECA
:1018900013D1EB68D5E90012206801F0B5F9206892
:1018A000806920F440602168886120688069A968A7
:1018B00040EA01202168886127E0082E12D1EB68F8
:1018C000D5E90012206801F0BCF92068C06920F059
:1018D0000C002168C8612068C069A96808432168B4
:1018E000C86112E0EB68D5E90012206801F0C5F983
:1018F0002068C06920F440602168C8612068C06920
:10190000A96840EA01202168C861012084F83D00EF
:1019100000BF002084F83C0000BF00BF9AE710B56C
:1019200004460CB9012010BD94F83D0028B90020F0
:1019300084F83C00204600F00CF8022084F83D00BA
:10194000211D206800F0E8FF012084F83D00002000
:10195000E9E7704770B504460D4635B1042D0BD04C
:10196000082D10D00C2D1CD114E02068C06840F068
:1019700002002168C86015E02068C06840F00400DB
:101980002168C8600EE02068C06840F00800216847
:10199000C86007E02068C06840F010002168C86097
:1019A00000E000BF00BF01222946206800F0EEFFE2
:1019B0002068806800F00706062E05D020680068C1
:1019C00040F0010021680860002070BD10B5044699
:1019D00020680069C0F34000D8B12068C068C0F337
:1019E0004000B0B16FF0020021680861012020774B
:1019F0002068806900F0030018B12046FFF713FF4C
:101A000005E0204600F0DAF8204600F099F90020C1
:101A1000207720680069C0F38000D8B12068C068D2
:101A2000C0F38000B0B16FF00400216808610220AB
:101A300020772068806900F4407018B12046FFF7D5
:101A4000F2FE05E0204600F0B9F8204600F078F9F3
:101A50000020207720680069C0F3C000D8B120685A
:101A6000C068C0F3C000B0B16FF008002168086121
:101A7000042020772068C06900F0030018B12046D8
:101A8000FFF7D1FE05E0204600F098F8204600F070
:101A900057F90020207720680069C0F30010D8B102
:101AA0002068C068C0F30010B0B16FF0100021686A
:101AB0000861082020772068C06900F4407018B1E0
:101AC0002046FFF7B0FE05E0204600F077F82046FC
:101AD00000F036F9002020772068006900F001004E
:101AE00058B12068C06800F0010030B16FF001000B
:101AF00021680861204600F04BF920680069C0F3B6
:101B0000C01058B12068C068C0F3C01030B16FF089
:101B10008000216808612046FFF73CFD20680069CD
:101B2000C0F3801058B12068C068C0F3801030B195
:101B30006FF0400021680861204600F090F92068AD
:101B40000069C0F3401058B12068C068C0F340106D
:101B500030B16FF02000216808612046FFF71BFDBF
:101B600010BD000010B586B004460020029003901E
:101B7000049005900E492068884216D100BF0D4898
:101B8000806940F008000B4988610846806900F0D0
:101B90000800019000BF00BF402002900220039087
:101BA000059002A90448FEF7D3FE06B010BD000060
:101BB0000008004000100240000C0140704770B562
:101BC00004460D46164600BF94F83C00012801D19A
:101BD000022070BD012084F83C0000BF022084F880
:101BE0003D0036B1042E1BD0082E31D00C2E5ED114
:101BF00045E02946206800F0EFFE2068806940F04B
:101C00000800216888612068806920F0040021684C
:101C1000886120688069296908432168886147E0F4
:101C20002946206800F008FF2068806940F40060C1
:101C3000216888612068806920F48060216888615B
:101C400020688069296940EA0120216888612FE0C5
:101C50002946206800F024FF2068C06940F0080091
:101C60002168C8612068C06920F004002168C8614B
:101C70002068C069296908432168C86118E02946BD
:101C8000206800F041FF2068C06940F400602168CE
:101C9000C8612068C06920F480602168C86120683C
:101CA000C069296940EA01202168C86100E000BFDD
:101CB00000BF012084F83D0000BF002084F83C00F4
:101CC00000BF00BF85E710B504460CB9012010BD68
:101CD00094F83D0028B9002084F83C00204600F02C
:101CE0000DF8022084F83D00211D206800F014FE4C
:101CF000012084F83D000020E9E7000038B50446E3
:101D00000D492068884215D100BF0C48C06940F0D9
:101D100004000A49C8610846C06900F00400009048
:101D200000BF00BF002211461E20FFF74DF81E2005
:101D3000FFF73AF838BD00000008004000100240EC
:101D40007047000070B504460E46012231462068F7
:101D500000F01CFE0D492068884201D1012000E0FE
:101D6000002028B12068406C40F40040216848649D
:101D70002068806800F00705062D05D020680068FF
:101D800040F0010021680860002070BD002C014077
:101D900010B504462068B0F1804F04D11D4840685A
:101DA000401C1C4948601C492068884231D11B48AE
:101DB0001B4991F9001010F8310050B31948006820
:101DC000012802D0022822D110E0012000F0F2FC0C
:101DD0001248134991F9001000EBC10040881249E4
:101DE0000968486202200F49086011E0002000F0F5
:101DF000E1FC0A480A4991F9001000EBC100808813
:101E000009490968486201200649086000E000BFEE
:101E100000BF10BD6C02002000040040060000203E
:101E200004000020C0000020240100200246002001
:101E300031B1042907D0082908D00C290CD108E0B9
:101E40001368586B09E01368986B06E01368D86B49
:101E500003E01368186C00E000BF00BF70477047D4
:101E600003490978491C49B2014A117070470000C2
:101E7000D10000202DE9F04704462068056820685D
:101E8000C668206847694FF00008C14605F00F0892
:101E9000B8F1000F0AD105F0200038B106F020009B
:101EA00020B1204600F0F2FFBDE8F087B8F1000F46
:101EB0006DD007F0010018B906F49070002866D0C4
:101EC00005F0010030B106F4807018B1E06B40F00D
:101ED0000100E06305F0040030B107F0010018B123
:101EE000E06B40F00200E06305F0020030B107F063
:101EF000010018B1E06B40F00400E06305F0080059
:101F000030B107F0010018B1E06B40F00800E06369
:101F1000E06B68B305F0200028B106F0200010B196
:101F2000204600F0B3FF20684069C0F38019E06BE1
:101F300000F0080010B9B9F1000F22D0204600F0DF
:101F40007BFF2068406900F04000B0B12068406924
:101F500020F0400021684861606B50B11748616B08
:101F60004863606BFEF788FA10B1606B416B88477D
:101F70000CE02046FFF774FF08E02046FFF770FFF3
:101F800004E02046FFF76CFF0020E0638CE705F0DB
:101F9000800030B106F0800018B1204601F09AF8B8
:101FA00082E705F0400030B106F0400018B120464D
:101FB00000F052FF78E700BF76E700003D2D0008F3
:101FC00010B504460CB9012010BDA06900B100E0B5
:101FD00000BF94F8390028B9002084F83800204662
:101FE00000F028F8242084F839002068C06820F424
:101FF00000502168C860204600F09CFF20680069FE
:1020000020F49040216808612068406920F02A008F
:10201000216848612068C06840F400502168C860A9
:102020000020E063202084F8390084F83A00002082
:10203000CAE7000010B586B0044600200290039065
:102040000490059037492068884269D100BF36481E
:10205000C06940F480203449C8610846C06900F472
:102060008020019000BF00BF00BF0846806940F09B
:10207000080088610846806900F00800019000BFF0
:1020800000BF08150290022003900320059002A9CA
:102090002648FEF75DFC4FF400600290002003909C
:1020A000049002A92148FEF753FC21482149086009
:1020B0000020486000211F4881608021C16000210C
:1020C000016141618161C161FEF7FCFA08B1FEF76F
:1020D00067F900BF17486063446200BF14481438B2
:1020E0001549086010204860002113488160802154
:1020F000C1600021016141618161C161FEF7E2FAC5
:1021000008B1FEF74DF900BF0B482063446200BFE1
:10211000002211462720FEF757FE2720FEF744FE37
:1021200006B010BD0048004000100240000C014005
:1021300030000240E40100202802002077B581B081
:102140000446154694F83A00202850D1029800B170
:1021500015B9012004B070BD00BF94F83800012803
:1021600001D10220F6E7012084F8380000BF029870
:10217000A062A5850020E063222084F83A001D4873
:10218000616B88621C48616BC8621C48616B0863A4
:102190000020616B486302AE32682368191D2B462C
:1021A000606BFEF7C3FA00BF002000902068006853
:1021B000009020684068009000BF00BF00BF002072
:1021C00084F8380000BF2068C06840F4807021683F
:1021D000C8602068406940F00100216848612068BB
:1021E000406940F04000216848610020B2E70220C9
:1021F000B0E70000A12D0008E72D0008512D0008D0
:1022000010B504460120044908700522034904481A
:10221000FFF794FF10BD000003000020BA0000206B
:10222000A401002070470000F7B50446154694F855
:10223000390020283DD1019800B10DB90120FEBD23
:1022400000BF94F83800012801D10220F7E70120EF
:1022500084F8380000BF01982062A584E58400203E
:10226000E063212084F839001348216B8862134809
:10227000216BC8621248216B08630020216B486300
:1022800001AE23681A1D31682B46206BFEF74EFA0B
:102290006FF040002168086000BF002084F838001B
:1022A00000BF2068406940F080002168486100203C
:1022B000C5E70220C3E70000F52D00082B2E00081B
:1022C000512D00080221014A1170704702000020C0
:1022D000704700BFFEE7000008B500BF0E48406928
:1022E00040F001000C4948610846406900F00100D7
:1022F000009000BF00BF002211460C20FEF764FDD5
:102300000C20FEF751FD002211460D20FEF75CFD6A
:102310000D20FEF749FD08BD0010024000B585B054
:102320000020019002900390049000BF484880690B
:1023300040F01000464988610846806900F01000AE
:10234000009000BF00BF00BF0846806940F0200039
:1023500088610846806900F02000009000BF00BF3F
:1023600000BF0846806940F0040088610846806923
:1023700000F00400009000BF00BF00BF0846806965
:1023800040F0080088610846806900F0080000906D
:1023900000BF00BF00224FF400512E48FEF76FFC33
:1023A000002241F6FF712C48FEF769FC00224FF233
:1023B000BF312A48FEF763FC4FF400500190012022
:1023C0000290002003900320049001A92148FEF709
:1023D000BFFA4FF44040019000200290039001A901
:1023E0001C48FEF7B5FA41F6BB700190012002903F
:1023F000002003900220049001A91748FEF7A8FAD4
:1024000044200190012002900020039003200490BA
:1024100001A91148FEF79CFA0320019001200290C7
:10242000002003900320049001A90C48FEF790FAC5
:102430004FF2BC3001900120029000200390022056
:10244000049001A90548FEF783FA05B000BD00001D
:10245000001002400010014000080140000C014043
:1024600000B58BB000200790089009900A90059065
:10247000069001900290039004904FF080401F4915
:1024800008603720486000211C4881604FF6FF71CA
:10249000C160002101618161FFF7A8F808B1FDF773
:1024A0007FFF4FF48050079007A91448FFF737F9D2
:1024B00008B1FDF775FF1148FFF731FA08B1FDF7D4
:1024C0006FFF00200590069005A90C48FFF764F8FF
:1024D00008B1FDF765FF0220019001200290002065
:1024E000039008200490002201A90448FFF7A7F9EF
:1024F00008B1FDF755FF0BB000BD0000E40000205F
:1025000000B587B0002003900490059006900190DC
:102510000290144814490860642048600021124861
:1025200081604FF6FF71C160002101618161FFF799
:102530005DF808B1FDF734FF4FF48050039003A914
:102540000948FFF7ECF808B1FDF72AFF00200190D9
:10255000029001A90448FFF71FF808B1FDF720FF1A
:1025600007B000BD000400402401002000B589B080
:102570000020079008901C216846FDF7DAFD1B48F3
:102580001B490860012048600021194881604FF410
:10259000B461C160002101618161FFF794FB08B162
:1025A000FDF7FEFE00200790089007A91048FEF7EF
:1025B000F3FF08B1FDF7F4FE602000904FF4967031
:1025C0000190002002900490002269460848FFF71D
:1025D000F6FA08B1FDF7E4FE00210548FFF7B2FB6B
:1025E0000348FFF7BFFA09B000BD00000008004033
:1025F0006401002010B50B480B4908604FF41650D9
:102600004860002108488160C16001610C2141617E
:1026100000218161C161FFF7D3FC08B1FDF7C0FE65
:1026200010BD000000480040A401002000BFFEE7EC
:1026300070470000002026490988264A1288881A17
:102640002549086025490968002909DB23490968EB
:10265000B1F52F6F04D8224909680144204A11605E
:102660001B49098819B9002000211D4A11601D4924
:1026700009881D4A1288514341431C4A12881C4B49
:102680001B885A43164B1B6802FB03121849098822
:10269000154B1B88594392FBF1F1104A116011460A
:1026A0000968002909DB11460968B1F52F6F04D8C4
:1026B000114609880F4A118004E000BF4FF42F61D2
:1026C0000C4A11800B4909880B4A12685163704704
:1026D0009600002098000020B0000020A8000020F4
:1026E0009C000020A0000020A6000020A4000020E4
:1026F000A2000020AC0000206401002010B5FEF70D
:10270000B7FB10BD7047F8B506460F4614461D4688
:10271000FEF7BCFA009014F8350038B90098304440
:1027200004EBC5014860012004F8350004EBC50046
:1027300040680099884203D8002004F83500B84763
:10274000F8BD000008B508490968C9084FF47A7255
:10275000B1FBF2F14143009100BF00BF00994A1E56
:1027600000920029F9D108BDE00000207047000068
:1027700010B500210C48FFF759FB0C49C86008460A
:1027800040680874002008490968486207494860A1
:1027900008468068401C886008468068022801D38B
:1027A0000120887010BD0000E40000206C020020B1
:1027B0007047000010B50446012C05D101221146D6
:1027C0000448FEF75CFA04E0002201210148FEF70C
:1027D00056FA10BD000C014010B54FF400510248EC
:1027E000FEF746FA10BD0000001001400948C1681C
:1027F000007C01EB00400749C8600846C0680649F4
:10280000B1FBF0F0034988820846808A03490880BA
:10281000704700006C0200202F82AE049800002058
:1028200010B5FEF739FA10BD00B58FB0282105A804
:10283000FDF77FFC14216846FDF77BFC0120059025
:1028400000040690002007900120099002200C90BF
:10285000C1030D914FF4E0110E9105A8FEF74EFC57
:1028600008B1FDF79DFD0F2000900220019000208F
:1028700002904FF48060039000200490022168468B
:10288000FEF706FB08B1FDF78BFD0FB000BD0000A1
:102890001148006840F001000F4908600846406890
:1028A0000E4908400C494860084600680C49084039
:1028B000094908600846006820F48020086008463E
:1028C000406820F4FE0048604FF41F008860C80391
:1028D0000449086070470000001002400000FFF843
:1028E000FFFFF6FE08ED00E010B50248FFF76EF8B6
:1028F00010BD0000E400002010B50248FFF766F8A4
:1029000010BD00002401002010B50248FFF75EF85A
:1029100010BD00006401002010B50268184B9842F9
:1029200008D0B0F1804F05D0164B984202D0164B1C
:10293000984203D122F070024B681A43104B984220
:1029400008D0B0F1804F05D00E4B984202D00E4B0C
:10295000984203D122F44072CB681A4322F08003DC
:102960004C6943EA040202608B68C3620B688362AD
:10297000034B984201D10B6903630123436110BDEE
:10298000002C0140000400400008004030B501F078
:102990001F05012404FA05F3046A9C430462046AD7
:1029A00001F01F0502FA05F52C43046230BD30B575
:1029B0000C46816821F47F4142EA032525432943DF
:1029C000816030BD0A46816821F0700142F0070342
:1029D000194381607047000030B5056A25F0010594
:1029E0000562026A4368846924F0700424F00304D9
:1029F0000D682C4322F002028D682A430D4DA84237
:102A000006D100BF22F00802CD682A4322F004025A
:102A1000084DA84207D123F4807323F400734D6955
:102A20002B438D692B43436084614D68456302628B
:102A300030BD0000002C014030B5056A25F01005BE
:102A40000562026A4368846924F4E04424F4407413
:102A50000D6844EA052422F020028D6842EA05123E
:102A60000E4DA84207D100BF22F08002CD6842EA95
:102A7000051222F04002094DA84209D123F48063D7
:102A800023F400634D6943EA85038D6943EA8503B6
:102A9000436084614D688563026230BD002C014053
:102AA00030B5056A25F480750562026A4368C46919
:102AB00024F0700424F003040D682C4322F4007207
:102AC0008D6842EA05220F4DA84207D100BF22F4CB
:102AD0000062CD6842EA052222F48062094DA842D4
:102AE00009D123F4805323F400534D6943EA0513BD
:102AF0008D6943EA05134360C4614D68C563026292
:102B000030BD0000002C014030B5056A25F4805529
:102B10000562036A4468C26922F4E04222F440720A
:102B20000D6842EA052223F400538D6843EA053319
:102B3000064DA84204D124F480444D6944EA85142A
:102B40004460C2614D680564036230BD002C0140E1
:102B500030B50B461446026A056A25F00105056288
:102B6000816921F0F00141EA041122F00A021A43BE
:102B70008161026230BD000070B50C461546066AE0
:102B800026F0010606628169026A124EB04208D040
:102B9000B0F1804F05D0104EB04202D00F4EB0427F
:102BA00001D1012600E000261EB121F003012943D6
:102BB00001E041F0010121F0F001F02606EA0316E0
:102BC000314322F00A0204F00A06324381610262B4
:102BD00070BD0000002C01400004004000080040CF
:102BE00030B50B461446056A25F01005056281696B
:102BF000026A21F4704141EA043122F0A00242EA63
:102C000003128161026230BD70B50C461546066A3A
:102C100026F0100606628169026A21F4407141EAD9
:102C2000052121F470414FF4704606EA0336314322
:102C300022F0A002A02606EA041632438161026255
:102C400070BD70B50C461546066A26F4807606629D
:102C5000C169026A21F00301294321F0F001F02645
:102C600006EA0316314322F400724FF4007606EAB6
:102C700004263243C161026270BD70B50C46154630
:102C8000066A26F480560662C169026A21F4407120
:102C900041EA052121F470414FF4704606EA0336FB
:102CA000314322F400524FF4005606EA0436324310
:102CB000C161026270BD704710B5FFF78DFDFDF771
:102CC000D3FAFDF72FFB1548007820B3144800789D
:102CD000E0B914481449097830F811001349088004
:102CE000104814301049097810F811000C49087088
:102CF0000D480078092805D20B480078401C0A4985
:102D0000087008E000200849087004E004480078D2
:102D1000401E03490870FFF78DFC10BDBF00002066
:102D2000940000206C000020D000002096000020BD
:102D300000B5FDF71DFAFDF713FB00BD70B50546A4
:102D40006C6A0020E085E0842046FFF789F870BDBA
:102D500070B506460025746A20684069C0F3C01546
:102D600094F83900212805D125B10020E0842046BF
:102D700000F082F820684069C0F3801594F83A00AA
:102D8000222805D125B10020E085204600F054F826
:102D9000E06B40F01000E0632046FFF761F870BD83
:102DA00070B505466C6A2868006800F02000B0B96C
:102DB0000020E0852068C06820F480702168C86029
:102DC0002068406920F0010021684861206840695E
:102DD00020F0400021684861202084F83A00204615
:102DE000FFF70EFA70BD70B50446656A2846FFF716
:102DF00019FA70BD70B505466C6A2868006800F065
:102E0000200070B90020E0842068406920F0800034
:102E1000216848612068C06840F040002168C860AF
:102E200002E02046FFF74EFA70BD70B50446656AB1
:102E30002846FFF74DFA70BD0168C96821F490710A
:102E40000268D1600168496921F00101026851619D
:102E5000202180F83A10704710B504462068C068F9
:102E600020F040002168C860202084F83900204606
:102E7000FFF728FA002010BD0168C96821F0C001E1
:102E80000268D160202180F83910704770B504467F
:102E900094F83A0022284AD1A068B0F5805F13D197
:102EA000A56A206940B920684068C0F308002880FE
:102EB000A06A801CA06219E020684068C0B2288027
:102EC000A06A401CA06211E0206938B920684068FF
:102ED000C1B2A26A501CA062117007E0206840686D
:102EE00000F07F01A26A501CA0621170E08D401EAC
:102EF00080B2E085C8B92068C06820F02000216851
:102F0000C8602068C06820F480702168C8602068AC
:102F1000406920F0010021684861202084F83A00CF
:102F20002046FFF76DF9002070BD0020FCE702206D
:102F3000FAE7000070B504462168096921F44051A0
:102F4000E2681143226811612269A1681143626934
:102F500041EA02052168C96841F20C6291432943A4
:102F60002268D1602168496921F44071A269114346
:102F700022685161564A2168914254D1FEF764F8A3
:102F800000EBC00101EB001162689200B1FBF2F1AD
:102F900000EBC00202EB001263689B00B2FBF3F28D
:102FA0006423B2FBF3F202EBC20303EB0212A1EBC8
:102FB0008201322202EB01116422B1FBF2F101F035
:102FC000F00100EBC00202EB001263689B00B2FB51
:102FD000F3F26423B2FBF3F201EB021200EBC00147
:102FE00001EB001163689B00B1FBF3F100EBC00340
:102FF00003EB00136668B600B3FBF6F36426B3FB7D
:10300000F6F303EBC30606EB0313A1EB83013223B4
:1030100003EB01116423B1FBF3F101F00F01114443
:103020002268916053E0FDF7FFFF00EBC00101EB68
:10303000001162689200B1FBF2F100EBC00202EBFA
:10304000001263689B00B2FBF3F26423B2FBF3F25D
:1030500002EBC20303EB0212A1EB8201322202EB6C
:1030600001116422B1FBF2F101F0F00100EBC002AA
:1030700002EB001263689B00B2FBF3F26423B2FB25
:10308000F3F201EB021200EBC00101EB00116368E7
:103090009B00B1FBF3F100EBC00303EB0013666888
:1030A000B600B3FBF6F36426B3FBF6F303EBC306FB
:1030B00006EB0313A1EB8301322303EB011164231D
:1030C000B1FBF3F101F00F0111442268916070BD72
:1030D00000380140014691F8390021282CD1886838
:1030E000B0F5805F0FD10A6A1088C0F308000B6842
:1030F0005860086918B9086A801C086209E0086A03
:10310000401C086205E00B6A581C086218780B68BE
:103110005860C88C401E80B2C88458B90868C0681E
:1031200020F080000B68D8600868C06840F040005C
:103130000B68D860002070470220FCE710B50248F9
:10314000FEF798FE10BD0000A401002000BFFEE7BE
:1031500002480068C0F30220704700000CED00E058
:1031600010B5002804DB0A07130E054A135406E0C5
:103170000A07140E034A00F00F031B1FD45410BD9E
:1031800000E400E018ED00E002E008C8121F08C1EA
:10319000002AFAD170477047002001E001C1121FD8
:1031A000002AFBD170470000FDF782FDFFF73CFBD2
:1031B000FFF7B4F8FFF790F8FFF752F9FFF7A0F91F
:1031C000FFF7D4F9FFF716FA05221A491A48FEF755
:1031D000B5FF1A480068C06840F001001749096847
:1031E000C86000211548FEF7B5FB1548FEF782FAC6
:1031F00000F032F8FCF7BCFF1BE012488078012891
:1032000004D1FFF7F3FA00200E49887000230E4A1C
:103210000E491420FFF777FA01230B4A0C4964206A
:10322000FFF771FA0223084A0A4941F28830FFF792
:103230006AFAE2E7BA000020A4010020E4000020BE
:10324000240100206C020020A4020020B72C0008FA
:10325000B92C0008312D0008002100200FE0094A98
:1032600012F83020012A09D1074A5054521E127810
:10327000521C054B5B1E1A704A1CD1B2401C0C2814
:10328000EDDB7047060000209502002000000000E2
:103290000000000001020304060708090000000006
:1032A00001020304C432000800000020E400000012
:1032B00088310008A8330008E4000020FC05000065
:1032C00098310008000000000000010021F03F0CD0
:1032D0008A0201001BF3F33920030100AFF58F616F
:1032E000E8030100D7FAC7B0D00701008FFC2FCB4D
:1032F000B80B01006BFD63D8A00F0100EFFD4FE09C
:103300008813010047FE97E57017010086FE5DE90E
:10331000581B0100B5FE31EC401F0100DAFE64EEDF
:1033200028230100F7FE27F010270000000000000E
:103330000000B0042003E803DC05DC05E8032003FB
:10334000F4015E01C2016400C800C800C800960014
:1033500064006400640064000000000000000000DD
:10336000000000005802E8031400E8030000000019
:10337000000000000000000041313030300A000041
:10338000000000000100000000000000000000003C
:10339000000000000000000000000000100000001D
:0833A000010000000024F4000C
:04000005080000ED02
:00000001FF
